{"abi":[{"type":"constructor","inputs":[],"stateMutability":"nonpayable"},{"type":"function","name":"addAdmin","inputs":[{"name":"_admin","type":"address","internalType":"address"}],"outputs":[],"stateMutability":"nonpayable"},{"type":"function","name":"getAdmins","inputs":[],"outputs":[{"name":"","type":"address[]","internalType":"address[]"}],"stateMutability":"view"},{"type":"function","name":"isAdmin","inputs":[{"name":"_admin","type":"address","internalType":"address"}],"outputs":[{"name":"","type":"bool","internalType":"bool"}],"stateMutability":"view"},{"type":"function","name":"owner","inputs":[],"outputs":[{"name":"","type":"address","internalType":"address"}],"stateMutability":"view"},{"type":"function","name":"removeAdmin","inputs":[{"name":"_admin","type":"address","internalType":"address"}],"outputs":[],"stateMutability":"nonpayable"},{"type":"function","name":"transferOwnership","inputs":[{"name":"newOwner","type":"address","internalType":"address"}],"outputs":[],"stateMutability":"nonpayable"},{"type":"event","name":"AdminAdded","inputs":[{"name":"_admin","type":"address","indexed":true,"internalType":"address"}],"anonymous":false},{"type":"event","name":"AdminRemoved","inputs":[{"name":"_admin","type":"address","indexed":true,"internalType":"address"}],"anonymous":false},{"type":"event","name":"OwnershipTransferred","inputs":[{"name":"user","type":"address","indexed":true,"internalType":"address"},{"name":"newOwner","type":"address","indexed":true,"internalType":"address"}],"anonymous":false}],"bytecode":{"object":"0x60806040526001805534801561001457600080fd5b50600080546001600160a01b031916339081178255604051909182917f8be0079c531659141344cd1fd0a4f28419497f9722a3daafe3b4186f6b6457e0908290a3506107b3806100656000396000f3fe608060405234801561001057600080fd5b50600436106100625760003560e01c80631785f53c1461006757806324d7806c1461007c57806331ae450b146100a457806370480275146100b95780638da5cb5b146100cc578063f2fde38b146100f7575b600080fd5b61007a610075366004610694565b61010a565b005b61008f61008a366004610694565b61025e565b60405190151581526020015b60405180910390f35b6100ac610271565b60405161009b91906106bd565b61007a6100c7366004610694565b610282565b6000546100df906001600160a01b031681565b6040516001600160a01b03909116815260200161009b565b61007a610105366004610694565b610421565b6000546001600160a01b0316331461013d5760405162461bcd60e51b81526004016101349061070a565b60405180910390fd5b60015460011461017c5760405162461bcd60e51b815260206004820152600a6024820152695245454e5452414e435960b01b6044820152606401610134565b600260015561018a8161025e565b6101d65760405162461bcd60e51b815260206004820152601760248201527f41646d696e206e6f7420696e2061646d696e55736572730000000000000000006044820152606401610134565b6101e1600282610496565b6102235760405162461bcd60e51b815260206004820152601360248201527221b0b73737ba103932b6b7bb329030b236b4b760691b6044820152606401610134565b6040516001600160a01b038216907fa3b62bc36326052d97ea62d63c3d60308ed4c3ea8ac079dd8499f1e9c4f80c0f90600090a25060018055565b600061026b6002836104b2565b92915050565b606061027d60026104d4565b905090565b6000546001600160a01b031633146102ac5760405162461bcd60e51b81526004016101349061070a565b6001546001146102eb5760405162461bcd60e51b815260206004820152600a6024820152695245454e5452414e435960b01b6044820152606401610134565b60026001556001600160a01b0381166103465760405162461bcd60e51b815260206004820152601760248201527f4d75737420626520612076616c696420616464726573730000000000000000006044820152606401610134565b61034f8161025e565b1561039c5760405162461bcd60e51b815260206004820152601860248201527f4164647265737320697320616c72656164792061646d696e00000000000000006044820152606401610134565b6103a76002826104e1565b6103e65760405162461bcd60e51b815260206004820152601060248201526f21b0b73737ba1030b2321030b236b4b760811b6044820152606401610134565b6040516001600160a01b038216907f44d6d25963f097ad14f29f06854a01f575648a1ef82f30e562ccd3889717e33990600090a25060018055565b6000546001600160a01b0316331461044b5760405162461bcd60e51b81526004016101349061070a565b600080546001600160a01b0319166001600160a01b0383169081178255604051909133917f8be0079c531659141344cd1fd0a4f28419497f9722a3daafe3b4186f6b6457e09190a350565b60006104ab836001600160a01b0384166104f6565b9392505050565b6001600160a01b038116600090815260018301602052604081205415156104ab565b606060006104ab836105e9565b60006104ab836001600160a01b038416610645565b600081815260018301602052604081205480156105df57600061051a600183610730565b855490915060009061052e90600190610730565b905081811461059357600086600001828154811061054e5761054e610751565b906000526020600020015490508087600001848154811061057157610571610751565b6000918252602080832090910192909255918252600188019052604090208390555b85548690806105a4576105a4610767565b60019003818190600052602060002001600090559055856001016000868152602001908152602001600020600090556001935050505061026b565b600091505061026b565b60608160000180548060200260200160405190810160405280929190818152602001828054801561063957602002820191906000526020600020905b815481526020019060010190808311610625575b50505050509050919050565b600081815260018301602052604081205461068c5750815460018181018455600084815260208082209093018490558454848252828601909352604090209190915561026b565b50600061026b565b6000602082840312156106a657600080fd5b81356001600160a01b03811681146104ab57600080fd5b6020808252825182820181905260009190848201906040850190845b818110156106fe5783516001600160a01b0316835292840192918401916001016106d9565b50909695505050505050565b6020808252600c908201526b15539055551213d49256915160a21b604082015260600190565b8181038181111561026b57634e487b7160e01b600052601160045260246000fd5b634e487b7160e01b600052603260045260246000fd5b634e487b7160e01b600052603160045260246000fdfea2646970667358221220565aadd05e748d759c59374c78cfcd5e73a34cbd320dc518956ab2f87f4a78be64736f6c63430008180033","linkReferences":{}},"methodIdentifiers":{"addAdmin(address)":"70480275","getAdmins()":"31ae450b","isAdmin(address)":"24d7806c","owner()":"8da5cb5b","removeAdmin(address)":"1785f53c","transferOwnership(address)":"f2fde38b"},"id":20}