{"abi":[{"type":"constructor","inputs":[],"stateMutability":"nonpayable"},{"type":"function","name":"addAdmin","inputs":[{"name":"_admin","type":"address","internalType":"address"}],"outputs":[],"stateMutability":"nonpayable"},{"type":"function","name":"getAdmins","inputs":[],"outputs":[{"name":"","type":"address[]","internalType":"address[]"}],"stateMutability":"view"},{"type":"function","name":"isAdmin","inputs":[{"name":"_admin","type":"address","internalType":"address"}],"outputs":[{"name":"","type":"bool","internalType":"bool"}],"stateMutability":"view"},{"type":"function","name":"owner","inputs":[],"outputs":[{"name":"","type":"address","internalType":"address"}],"stateMutability":"view"},{"type":"function","name":"removeAdmin","inputs":[{"name":"_admin","type":"address","internalType":"address"}],"outputs":[],"stateMutability":"nonpayable"},{"type":"function","name":"transferOwnership","inputs":[{"name":"newOwner","type":"address","internalType":"address"}],"outputs":[],"stateMutability":"nonpayable"},{"type":"event","name":"AdminAdded","inputs":[{"name":"_admin","type":"address","indexed":true,"internalType":"address"}],"anonymous":false},{"type":"event","name":"AdminRemoved","inputs":[{"name":"_admin","type":"address","indexed":true,"internalType":"address"}],"anonymous":false},{"type":"event","name":"OwnershipTransferred","inputs":[{"name":"user","type":"address","indexed":true,"internalType":"address"},{"name":"newOwner","type":"address","indexed":true,"internalType":"address"}],"anonymous":false}],"bytecode":{"object":"0x6080806040523461005357600080546001600160a01b031916339081178255907f8be0079c531659141344cd1fd0a4f28419497f9722a3daafe3b4186f6b6457e08180a36001805561071b90816100598239f35b600080fdfe60406080815260048036101561001457600080fd5b600091823560e01c9081631785f53c1461039b57816324d7806c1461035057816331ae450b1461026557816370480275146100ff5781638da5cb5b146100d7575063f2fde38b1461006457600080fd5b346100d35760203660031901126100d357356001600160a01b03818116918290036100cf57819061009a845491821633146104b8565b6001600160a01b031916178255337f8be0079c531659141344cd1fd0a4f28419497f9722a3daafe3b4186f6b6457e08380a380f35b8280fd5b5080fd5b8390346100d357816003193601126100d357905490516001600160a01b039091168152602090f35b919050346100cf5760203660031901126100cf5780356001600160a01b038181169391849003610261576101379085541633146104b8565b61014460018054146104f3565b6002600155821561021e57610166836000526003602052604060002054151590565b6101db576101738361067a565b156101a55750507f44d6d25963f097ad14f29f06854a01f575648a1ef82f30e562ccd3889717e3398280a26001805580f35b906020606492519162461bcd60e51b8352820152601060248201526f21b0b73737ba1030b2321030b236b4b760811b6044820152fd5b906020606492519162461bcd60e51b8352820152601860248201527f4164647265737320697320616c72656164792061646d696e00000000000000006044820152fd5b906020606492519162461bcd60e51b8352820152601760248201527f4d75737420626520612076616c696420616464726573730000000000000000006044820152fd5b8480fd5b9050823461034d578060031936011261034d57815180916002549384835260208093018095600284527f405787fa12a823e0f2b7631cc41b3ba8828b3321ca811111fa75cd3aa3bb5ace90845b868282106103395750505050849003601f01601f191684019567ffffffffffffffff871185881017610326575085815282865292518583018190528594938501939290915b82811061030657505050500390f35b83516001600160a01b0316855286955093810193928101926001016102f7565b634e487b7160e01b835260419052602482fd5b8354855290930192600192830192016102b2565b80fd5b919050346100cf5760203660031901126100cf57356001600160a01b038116929083900361034d57506103926020926000526003602052604060002054151590565b90519015158152f35b919050346100cf5760203660031901126100cf5780356001600160a01b038181169391849003610261576103d39085541633146104b8565b6103e060018054146104f3565b60026001556103fc836000526003602052604060002054151590565b156104755761040a83610579565b1561043c5750507fa3b62bc36326052d97ea62d63c3d60308ed4c3ea8ac079dd8499f1e9c4f80c0f8280a26001805580f35b906020606492519162461bcd60e51b8352820152601360248201527221b0b73737ba103932b6b7bb329030b236b4b760691b6044820152fd5b906020606492519162461bcd60e51b8352820152601760248201527f41646d696e206e6f7420696e2061646d696e55736572730000000000000000006044820152fd5b156104bf57565b60405162461bcd60e51b815260206004820152600c60248201526b15539055551213d49256915160a21b6044820152606490fd5b156104fa57565b60405162461bcd60e51b815260206004820152600a6024820152695245454e5452414e435960b01b6044820152606490fd5b6002548110156105635760026000527f405787fa12a823e0f2b7631cc41b3ba8828b3321ca811111fa75cd3aa3bb5ace0190600090565b634e487b7160e01b600052603260045260246000fd5b60008181526003602052604081205490919080156106755760001990808201818111610661576002549083820191821161064d57808203610602575b50505060025480156105ee578101906105cd8261052c565b909182549160031b1b19169055600255815260036020526040812055600190565b634e487b7160e01b84526031600452602484fd5b6106376106116106209361052c565b90549060031b1c92839261052c565b819391549060031b91821b91600019901b19161790565b90558452600360205260408420553880806105b5565b634e487b7160e01b86526011600452602486fd5b634e487b7160e01b85526011600452602485fd5b505090565b6000818152600360205260408120546106e057600254680100000000000000008110156106cc5790826106b86106208460016040960160025561052c565b905560025492815260036020522055600190565b634e487b7160e01b82526041600452602482fd5b90509056fea2646970667358221220e9a5ffd96297b5f8cc7b14b97f09c5dd23268da15c4e0557563ca2e5feba411c64736f6c63430008180033","linkReferences":{}},"methodIdentifiers":{"addAdmin(address)":"70480275","getAdmins()":"31ae450b","isAdmin(address)":"24d7806c","owner()":"8da5cb5b","removeAdmin(address)":"1785f53c","transferOwnership(address)":"f2fde38b"},"id":32}